{
  "address": "0x29093AA1E0F800b412BC8268BC00090d1f43d5e4",
  "abi": [
    {
      "inputs": [
        {
          "internalType": "address",
          "name": "_owner",
          "type": "address"
        },
        {
          "internalType": "address",
          "name": "_avatar",
          "type": "address"
        },
        {
          "internalType": "address",
          "name": "_target",
          "type": "address"
        },
        {
          "internalType": "address",
          "name": "_config",
          "type": "address"
        }
      ],
      "stateMutability": "nonpayable",
      "type": "constructor"
    },
    {
      "inputs": [
        {
          "internalType": "address",
          "name": "guard_",
          "type": "address"
        }
      ],
      "name": "NotIERC165Compliant",
      "type": "error"
    },
    {
      "anonymous": false,
      "inputs": [
        {
          "indexed": true,
          "internalType": "address",
          "name": "previousAvatar",
          "type": "address"
        },
        {
          "indexed": true,
          "internalType": "address",
          "name": "newAvatar",
          "type": "address"
        }
      ],
      "name": "AvatarSet",
      "type": "event"
    },
    {
      "anonymous": false,
      "inputs": [
        {
          "indexed": false,
          "internalType": "address",
          "name": "guard",
          "type": "address"
        }
      ],
      "name": "ChangedGuard",
      "type": "event"
    },
    {
      "anonymous": false,
      "inputs": [
        {
          "indexed": false,
          "internalType": "address",
          "name": "config",
          "type": "address"
        }
      ],
      "name": "ConfigSet",
      "type": "event"
    },
    {
      "anonymous": false,
      "inputs": [
        {
          "indexed": false,
          "internalType": "uint8",
          "name": "version",
          "type": "uint8"
        }
      ],
      "name": "Initialized",
      "type": "event"
    },
    {
      "anonymous": false,
      "inputs": [
        {
          "indexed": true,
          "internalType": "address",
          "name": "previousOwner",
          "type": "address"
        },
        {
          "indexed": true,
          "internalType": "address",
          "name": "newOwner",
          "type": "address"
        }
      ],
      "name": "OwnershipTransferred",
      "type": "event"
    },
    {
      "anonymous": false,
      "inputs": [
        {
          "indexed": false,
          "internalType": "uint256",
          "name": "nonce",
          "type": "uint256"
        },
        {
          "indexed": false,
          "internalType": "bytes32",
          "name": "spHash",
          "type": "bytes32"
        }
      ],
      "name": "PaymentScheduled",
      "type": "event"
    },
    {
      "anonymous": false,
      "inputs": [
        {
          "indexed": true,
          "internalType": "address",
          "name": "initiator",
          "type": "address"
        },
        {
          "indexed": true,
          "internalType": "address",
          "name": "owner",
          "type": "address"
        },
        {
          "indexed": true,
          "internalType": "address",
          "name": "avatar",
          "type": "address"
        },
        {
          "indexed": false,
          "internalType": "address",
          "name": "target",
          "type": "address"
        },
        {
          "indexed": false,
          "internalType": "address",
          "name": "config",
          "type": "address"
        }
      ],
      "name": "ScheduledPaymentSetup",
      "type": "event"
    },
    {
      "anonymous": false,
      "inputs": [
        {
          "indexed": true,
          "internalType": "address",
          "name": "previousTarget",
          "type": "address"
        },
        {
          "indexed": true,
          "internalType": "address",
          "name": "newTarget",
          "type": "address"
        }
      ],
      "name": "TargetSet",
      "type": "event"
    },
    {
      "inputs": [
        {
          "internalType": "bytes32",
          "name": "_spHash",
          "type": "bytes32"
        }
      ],
      "name": "addOneTimePayment",
      "outputs": [],
      "stateMutability": "nonpayable",
      "type": "function"
    },
    {
      "inputs": [],
      "name": "avatar",
      "outputs": [
        {
          "internalType": "address",
          "name": "",
          "type": "address"
        }
      ],
      "stateMutability": "view",
      "type": "function"
    },
    {
      "inputs": [],
      "name": "config",
      "outputs": [
        {
          "internalType": "address",
          "name": "",
          "type": "address"
        }
      ],
      "stateMutability": "view",
      "type": "function"
    },
    {
      "inputs": [],
      "name": "getGuard",
      "outputs": [
        {
          "internalType": "address",
          "name": "_guard",
          "type": "address"
        }
      ],
      "stateMutability": "view",
      "type": "function"
    },
    {
      "inputs": [
        {
          "internalType": "uint256",
          "name": "_nonce",
          "type": "uint256"
        }
      ],
      "name": "getSpHash",
      "outputs": [
        {
          "internalType": "bytes32",
          "name": "",
          "type": "bytes32"
        }
      ],
      "stateMutability": "view",
      "type": "function"
    },
    {
      "inputs": [],
      "name": "guard",
      "outputs": [
        {
          "internalType": "address",
          "name": "",
          "type": "address"
        }
      ],
      "stateMutability": "view",
      "type": "function"
    },
    {
      "inputs": [],
      "name": "nonce",
      "outputs": [
        {
          "internalType": "uint256",
          "name": "",
          "type": "uint256"
        }
      ],
      "stateMutability": "view",
      "type": "function"
    },
    {
      "inputs": [],
      "name": "owner",
      "outputs": [
        {
          "internalType": "address",
          "name": "",
          "type": "address"
        }
      ],
      "stateMutability": "view",
      "type": "function"
    },
    {
      "inputs": [],
      "name": "renounceOwnership",
      "outputs": [],
      "stateMutability": "nonpayable",
      "type": "function"
    },
    {
      "inputs": [
        {
          "internalType": "address",
          "name": "_avatar",
          "type": "address"
        }
      ],
      "name": "setAvatar",
      "outputs": [],
      "stateMutability": "nonpayable",
      "type": "function"
    },
    {
      "inputs": [
        {
          "internalType": "address",
          "name": "_config",
          "type": "address"
        }
      ],
      "name": "setConfig",
      "outputs": [],
      "stateMutability": "nonpayable",
      "type": "function"
    },
    {
      "inputs": [
        {
          "internalType": "address",
          "name": "_guard",
          "type": "address"
        }
      ],
      "name": "setGuard",
      "outputs": [],
      "stateMutability": "nonpayable",
      "type": "function"
    },
    {
      "inputs": [
        {
          "internalType": "address",
          "name": "_target",
          "type": "address"
        }
      ],
      "name": "setTarget",
      "outputs": [],
      "stateMutability": "nonpayable",
      "type": "function"
    },
    {
      "inputs": [
        {
          "internalType": "bytes",
          "name": "initParams",
          "type": "bytes"
        }
      ],
      "name": "setUp",
      "outputs": [],
      "stateMutability": "nonpayable",
      "type": "function"
    },
    {
      "inputs": [
        {
          "internalType": "uint256",
          "name": "",
          "type": "uint256"
        }
      ],
      "name": "spHash",
      "outputs": [
        {
          "internalType": "bytes32",
          "name": "",
          "type": "bytes32"
        }
      ],
      "stateMutability": "view",
      "type": "function"
    },
    {
      "inputs": [],
      "name": "target",
      "outputs": [
        {
          "internalType": "address",
          "name": "",
          "type": "address"
        }
      ],
      "stateMutability": "view",
      "type": "function"
    },
    {
      "inputs": [
        {
          "internalType": "address",
          "name": "newOwner",
          "type": "address"
        }
      ],
      "name": "transferOwnership",
      "outputs": [],
      "stateMutability": "nonpayable",
      "type": "function"
    }
  ],
  "transactionHash": "0x0b7f70c081a789ea1128ac9dfc3de87ca3b181d7f3a4341f023aff7c45975dab",
  "args": [
    "0x0000000000000000000000000000000000000001",
    "0x0000000000000000000000000000000000000001",
    "0x0000000000000000000000000000000000000001",
    "0x0000000000000000000000000000000000000001"
  ],
  "numDeployments": 1,
  "solcInputHash": "fd48524b20793e494514b64f04490c97",
  "bytecode": "0x60806040523480156200001157600080fd5b5060405162002663380380620026638339818101604052810190620000379190620007c4565b60008484848460405160200162000052949392919062000847565b604051602081830303815290604052905062000074816200007f60201b60201c565b505050505062000d1e565b60008060019054906101000a900460ff16159050808015620000b15750600160008054906101000a900460ff1660ff16105b80620000ed5750620000ce306200043f60201b62000d561760201c565b158015620000ec5750600160008054906101000a900460ff1660ff16145b5b6200012f576040517f08c379a000000000000000000000000000000000000000000000000000000000815260040162000126906200091b565b60405180910390fd5b60016000806101000a81548160ff021916908360ff16021790555080156200016d576001600060016101000a81548160ff0219169083151502179055505b6000806000808580602001905181019062000189919062000982565b9350935093509350620001a16200046260201b60201c565b600073ffffffffffffffffffffffffffffffffffffffff168373ffffffffffffffffffffffffffffffffffffffff16141562000214576040517f08c379a00000000000000000000000000000000000000000000000000000000081526004016200020b9062000a44565b60405180910390fd5b600073ffffffffffffffffffffffffffffffffffffffff168273ffffffffffffffffffffffffffffffffffffffff16141562000287576040517f08c379a00000000000000000000000000000000000000000000000000000000081526004016200027e9062000ab6565b60405180910390fd5b82606660006101000a81548173ffffffffffffffffffffffffffffffffffffffff021916908373ffffffffffffffffffffffffffffffffffffffff16021790555081606760006101000a81548173ffffffffffffffffffffffffffffffffffffffff021916908373ffffffffffffffffffffffffffffffffffffffff16021790555080606860006101000a81548173ffffffffffffffffffffffffffffffffffffffff021916908373ffffffffffffffffffffffffffffffffffffffff1602179055506200035b84620004c660201b60201c565b8273ffffffffffffffffffffffffffffffffffffffff168473ffffffffffffffffffffffffffffffffffffffff163373ffffffffffffffffffffffffffffffffffffffff167f490853bd3612e6f7ae135f201efdabdeafac4f4b5b0f6f92a9e39972286d21cd8585604051620003d392919062000ad8565b60405180910390a45050505080156200043b5760008060016101000a81548160ff0219169083151502179055507f7f26b83ff96e1f2b6a682f133852f6798a09c465da95921460cefb3847402498600160405162000432919062000b5f565b60405180910390a15b5050565b6000808273ffffffffffffffffffffffffffffffffffffffff163b119050919050565b600060019054906101000a900460ff16620004b4576040517f08c379a0000000000000000000000000000000000000000000000000000000008152600401620004ab9062000bf2565b60405180910390fd5b620004c46200055d60201b60201c565b565b620004d6620005d160201b60201c565b600073ffffffffffffffffffffffffffffffffffffffff168173ffffffffffffffffffffffffffffffffffffffff16141562000549576040517f08c379a0000000000000000000000000000000000000000000000000000000008152600401620005409062000c8a565b60405180910390fd5b6200055a816200066260201b60201c565b50565b600060019054906101000a900460ff16620005af576040517f08c379a0000000000000000000000000000000000000000000000000000000008152600401620005a69062000bf2565b60405180910390fd5b620005cf620005c36200072860201b60201c565b6200066260201b60201c565b565b620005e16200072860201b60201c565b73ffffffffffffffffffffffffffffffffffffffff16620006076200073060201b60201c565b73ffffffffffffffffffffffffffffffffffffffff161462000660576040517f08c379a0000000000000000000000000000000000000000000000000000000008152600401620006579062000cfc565b60405180910390fd5b565b6000603360009054906101000a900473ffffffffffffffffffffffffffffffffffffffff16905081603360006101000a81548173ffffffffffffffffffffffffffffffffffffffff021916908373ffffffffffffffffffffffffffffffffffffffff1602179055508173ffffffffffffffffffffffffffffffffffffffff168173ffffffffffffffffffffffffffffffffffffffff167f8be0079c531659141344cd1fd0a4f28419497f9722a3daafe3b4186f6b6457e060405160405180910390a35050565b600033905090565b6000603360009054906101000a900473ffffffffffffffffffffffffffffffffffffffff16905090565b600080fd5b600073ffffffffffffffffffffffffffffffffffffffff82169050919050565b60006200078c826200075f565b9050919050565b6200079e816200077f565b8114620007aa57600080fd5b50565b600081519050620007be8162000793565b92915050565b60008060008060808587031215620007e157620007e06200075a565b5b6000620007f187828801620007ad565b94505060206200080487828801620007ad565b93505060406200081787828801620007ad565b92505060606200082a87828801620007ad565b91505092959194509250565b62000841816200077f565b82525050565b60006080820190506200085e600083018762000836565b6200086d602083018662000836565b6200087c604083018562000836565b6200088b606083018462000836565b95945050505050565b600082825260208201905092915050565b7f496e697469616c697a61626c653a20636f6e747261637420697320616c72656160008201527f647920696e697469616c697a6564000000000000000000000000000000000000602082015250565b600062000903602e8362000894565b91506200091082620008a5565b604082019050919050565b600060208201905081810360008301526200093681620008f4565b9050919050565b60006200094a826200075f565b9050919050565b6200095c816200093d565b81146200096857600080fd5b50565b6000815190506200097c8162000951565b92915050565b600080600080608085870312156200099f576200099e6200075a565b5b6000620009af878288016200096b565b9450506020620009c2878288016200096b565b9350506040620009d5878288016200096b565b9250506060620009e8878288016200096b565b91505092959194509250565b7f4176617461722063616e206e6f74206265207a65726f20616464726573730000600082015250565b600062000a2c601e8362000894565b915062000a3982620009f4565b602082019050919050565b6000602082019050818103600083015262000a5f8162000a1d565b9050919050565b7f5461726765742063616e206e6f74206265207a65726f20616464726573730000600082015250565b600062000a9e601e8362000894565b915062000aab8262000a66565b602082019050919050565b6000602082019050818103600083015262000ad18162000a8f565b9050919050565b600060408201905062000aef600083018562000836565b62000afe602083018462000836565b9392505050565b6000819050919050565b600060ff82169050919050565b6000819050919050565b600062000b4762000b4162000b3b8462000b05565b62000b1c565b62000b0f565b9050919050565b62000b598162000b26565b82525050565b600060208201905062000b76600083018462000b4e565b92915050565b7f496e697469616c697a61626c653a20636f6e7472616374206973206e6f74206960008201527f6e697469616c697a696e67000000000000000000000000000000000000000000602082015250565b600062000bda602b8362000894565b915062000be78262000b7c565b604082019050919050565b6000602082019050818103600083015262000c0d8162000bcb565b9050919050565b7f4f776e61626c653a206e6577206f776e657220697320746865207a65726f206160008201527f6464726573730000000000000000000000000000000000000000000000000000602082015250565b600062000c7260268362000894565b915062000c7f8262000c14565b604082019050919050565b6000602082019050818103600083015262000ca58162000c63565b9050919050565b7f4f776e61626c653a2063616c6c6572206973206e6f7420746865206f776e6572600082015250565b600062000ce460208362000894565b915062000cf18262000cac565b602082019050919050565b6000602082019050818103600083015262000d178162000cd5565b9050919050565b6119358062000d2e6000396000f3fe608060405234801561001057600080fd5b506004361061010b5760003560e01c80638da5cb5b116100a2578063c910638911610071578063c910638914610280578063d4b839921461029e578063e19a9dd9146102bc578063e61444ed146102d8578063f2fde38b146102f45761010b565b80638da5cb5b146101f8578063a4f9edbf14610216578063aef23d9b14610232578063affed0e0146102625761010b565b8063715018a6116100de578063715018a614610196578063776d1a01146101a057806379502c55146101bc5780637ceab3b1146101da5761010b565b8063086cfca8146101105780630ce53a7e1461012c57806320e3dbd41461015c5780635aef7de614610178575b600080fd5b61012a60048036038101906101259190610ff1565b610310565b005b61014660048036038101906101419190611054565b6103de565b604051610153919061109a565b60405180910390f35b61017660048036038101906101719190610ff1565b6103fb565b005b61018061047e565b60405161018d91906110c4565b60405180910390f35b61019e6104a4565b005b6101ba60048036038101906101b59190610ff1565b6104b8565b005b6101c4610586565b6040516101d191906110c4565b60405180910390f35b6101e26105ac565b6040516101ef91906110c4565b60405180910390f35b6102006105d2565b60405161020d91906110c4565b60405180910390f35b610230600480360381019061022b9190611225565b6105fc565b005b61024c60048036038101906102479190611054565b61098b565b604051610259919061109a565b60405180910390f35b61026a6109a3565b604051610277919061127d565b60405180910390f35b6102886109a9565b60405161029591906110c4565b60405180910390f35b6102a66109d3565b6040516102b391906110c4565b60405180910390f35b6102d660048036038101906102d19190610ff1565b6109f9565b005b6102f260048036038101906102ed91906112c4565b610bbd565b005b61030e60048036038101906103099190610ff1565b610cd2565b005b610318610d79565b6000606660009054906101000a900473ffffffffffffffffffffffffffffffffffffffff16905081606660006101000a81548173ffffffffffffffffffffffffffffffffffffffff021916908373ffffffffffffffffffffffffffffffffffffffff1602179055508173ffffffffffffffffffffffffffffffffffffffff168173ffffffffffffffffffffffffffffffffffffffff167f52ae88b092de36f87fb43fe794eb1381023b9c1bce563a871154022c63dce34260405160405180910390a35050565b6000606a6000838152602001908152602001600020549050919050565b610403610d79565b80606860006101000a81548173ffffffffffffffffffffffffffffffffffffffff021916908373ffffffffffffffffffffffffffffffffffffffff1602179055507f2e902d38f15b233cbb63711add0fca4545334d3a169d60c0a616494d7eea95448160405161047391906110c4565b60405180910390a150565b606660009054906101000a900473ffffffffffffffffffffffffffffffffffffffff1681565b6104ac610d79565b6104b66000610df7565b565b6104c0610d79565b6000606760009054906101000a900473ffffffffffffffffffffffffffffffffffffffff16905081606760006101000a81548173ffffffffffffffffffffffffffffffffffffffff021916908373ffffffffffffffffffffffffffffffffffffffff1602179055508173ffffffffffffffffffffffffffffffffffffffff168173ffffffffffffffffffffffffffffffffffffffff167f90cc2f570a6eb594b1580ea3e41247d2d73a55281889e86bd4ec2fc29c7e62d660405160405180910390a35050565b606860009054906101000a900473ffffffffffffffffffffffffffffffffffffffff1681565b606560009054906101000a900473ffffffffffffffffffffffffffffffffffffffff1681565b6000603360009054906101000a900473ffffffffffffffffffffffffffffffffffffffff16905090565b60008060019054906101000a900460ff1615905080801561062d5750600160008054906101000a900460ff1660ff16105b8061065a575061063c30610d56565b1580156106595750600160008054906101000a900460ff1660ff16145b5b610699576040517f08c379a000000000000000000000000000000000000000000000000000000000815260040161069090611374565b60405180910390fd5b60016000806101000a81548160ff021916908360ff16021790555080156106d6576001600060016101000a81548160ff0219169083151502179055505b600080600080858060200190518101906106f091906113d2565b9350935093509350610700610ebd565b600073ffffffffffffffffffffffffffffffffffffffff168373ffffffffffffffffffffffffffffffffffffffff161415610770576040517f08c379a000000000000000000000000000000000000000000000000000000000815260040161076790611485565b60405180910390fd5b600073ffffffffffffffffffffffffffffffffffffffff168273ffffffffffffffffffffffffffffffffffffffff1614156107e0576040517f08c379a00000000000000000000000000000000000000000000000000000000081526004016107d7906114f1565b60405180910390fd5b82606660006101000a81548173ffffffffffffffffffffffffffffffffffffffff021916908373ffffffffffffffffffffffffffffffffffffffff16021790555081606760006101000a81548173ffffffffffffffffffffffffffffffffffffffff021916908373ffffffffffffffffffffffffffffffffffffffff16021790555080606860006101000a81548173ffffffffffffffffffffffffffffffffffffffff021916908373ffffffffffffffffffffffffffffffffffffffff1602179055506108ac84610cd2565b8273ffffffffffffffffffffffffffffffffffffffff168473ffffffffffffffffffffffffffffffffffffffff163373ffffffffffffffffffffffffffffffffffffffff167f490853bd3612e6f7ae135f201efdabdeafac4f4b5b0f6f92a9e39972286d21cd8585604051610922929190611511565b60405180910390a45050505080156109875760008060016101000a81548160ff0219169083151502179055507f7f26b83ff96e1f2b6a682f133852f6798a09c465da95921460cefb3847402498600160405161097e919061158c565b60405180910390a15b5050565b606a6020528060005260406000206000915090505481565b60695481565b6000606560009054906101000a900473ffffffffffffffffffffffffffffffffffffffff16905090565b606760009054906101000a900473ffffffffffffffffffffffffffffffffffffffff1681565b610a01610d79565b600073ffffffffffffffffffffffffffffffffffffffff168173ffffffffffffffffffffffffffffffffffffffff1614610b20578073ffffffffffffffffffffffffffffffffffffffff166301ffc9a77fe6d7a83a000000000000000000000000000000000000000000000000000000006040518263ffffffff1660e01b8152600401610a8e91906115e2565b60206040518083038186803b158015610aa657600080fd5b505afa158015610aba573d6000803e3d6000fd5b505050506040513d601f19601f82011682018060405250810190610ade9190611635565b610b1f57806040517fb16ea67e000000000000000000000000000000000000000000000000000000008152600401610b1691906110c4565b60405180910390fd5b5b80606560006101000a81548173ffffffffffffffffffffffffffffffffffffffff021916908373ffffffffffffffffffffffffffffffffffffffff1602179055507f1151116914515bc0891ff9047a6cb32cf902546f83066499bcf8ba33d2353fa2606560009054906101000a900473ffffffffffffffffffffffffffffffffffffffff16604051610bb291906110c4565b60405180910390a150565b606660009054906101000a900473ffffffffffffffffffffffffffffffffffffffff1673ffffffffffffffffffffffffffffffffffffffff163373ffffffffffffffffffffffffffffffffffffffff1614610c4d576040517f08c379a0000000000000000000000000000000000000000000000000000000008152600401610c44906116ae565b60405180910390fd5b80606a60006069548152602001908152602001600020819055507fbe33de2e9975bc89f84be9acf25c11003e08230c2c3f393a50c810ac14eb8390606954606a6000606954815260200190815260200160002054604051610caf9291906116ce565b60405180910390a160696000815480929190610cca90611726565b919050555050565b610cda610d79565b600073ffffffffffffffffffffffffffffffffffffffff168173ffffffffffffffffffffffffffffffffffffffff161415610d4a576040517f08c379a0000000000000000000000000000000000000000000000000000000008152600401610d41906117e1565b60405180910390fd5b610d5381610df7565b50565b6000808273ffffffffffffffffffffffffffffffffffffffff163b119050919050565b610d81610f16565b73ffffffffffffffffffffffffffffffffffffffff16610d9f6105d2565b73ffffffffffffffffffffffffffffffffffffffff1614610df5576040517f08c379a0000000000000000000000000000000000000000000000000000000008152600401610dec9061184d565b60405180910390fd5b565b6000603360009054906101000a900473ffffffffffffffffffffffffffffffffffffffff16905081603360006101000a81548173ffffffffffffffffffffffffffffffffffffffff021916908373ffffffffffffffffffffffffffffffffffffffff1602179055508173ffffffffffffffffffffffffffffffffffffffff168173ffffffffffffffffffffffffffffffffffffffff167f8be0079c531659141344cd1fd0a4f28419497f9722a3daafe3b4186f6b6457e060405160405180910390a35050565b600060019054906101000a900460ff16610f0c576040517f08c379a0000000000000000000000000000000000000000000000000000000008152600401610f03906118df565b60405180910390fd5b610f14610f1e565b565b600033905090565b600060019054906101000a900460ff16610f6d576040517f08c379a0000000000000000000000000000000000000000000000000000000008152600401610f64906118df565b60405180910390fd5b610f7d610f78610f16565b610df7565b565b6000604051905090565b600080fd5b600080fd5b600073ffffffffffffffffffffffffffffffffffffffff82169050919050565b6000610fbe82610f93565b9050919050565b610fce81610fb3565b8114610fd957600080fd5b50565b600081359050610feb81610fc5565b92915050565b60006020828403121561100757611006610f89565b5b600061101584828501610fdc565b91505092915050565b6000819050919050565b6110318161101e565b811461103c57600080fd5b50565b60008135905061104e81611028565b92915050565b60006020828403121561106a57611069610f89565b5b60006110788482850161103f565b91505092915050565b6000819050919050565b61109481611081565b82525050565b60006020820190506110af600083018461108b565b92915050565b6110be81610fb3565b82525050565b60006020820190506110d960008301846110b5565b92915050565b600080fd5b600080fd5b6000601f19601f8301169050919050565b7f4e487b7100000000000000000000000000000000000000000000000000000000600052604160045260246000fd5b611132826110e9565b810181811067ffffffffffffffff82111715611151576111506110fa565b5b80604052505050565b6000611164610f7f565b90506111708282611129565b919050565b600067ffffffffffffffff8211156111905761118f6110fa565b5b611199826110e9565b9050602081019050919050565b82818337600083830152505050565b60006111c86111c384611175565b61115a565b9050828152602081018484840111156111e4576111e36110e4565b5b6111ef8482856111a6565b509392505050565b600082601f83011261120c5761120b6110df565b5b813561121c8482602086016111b5565b91505092915050565b60006020828403121561123b5761123a610f89565b5b600082013567ffffffffffffffff81111561125957611258610f8e565b5b611265848285016111f7565b91505092915050565b6112778161101e565b82525050565b6000602082019050611292600083018461126e565b92915050565b6112a181611081565b81146112ac57600080fd5b50565b6000813590506112be81611298565b92915050565b6000602082840312156112da576112d9610f89565b5b60006112e8848285016112af565b91505092915050565b600082825260208201905092915050565b7f496e697469616c697a61626c653a20636f6e747261637420697320616c72656160008201527f647920696e697469616c697a6564000000000000000000000000000000000000602082015250565b600061135e602e836112f1565b915061136982611302565b604082019050919050565b6000602082019050818103600083015261138d81611351565b9050919050565b600061139f82610f93565b9050919050565b6113af81611394565b81146113ba57600080fd5b50565b6000815190506113cc816113a6565b92915050565b600080600080608085870312156113ec576113eb610f89565b5b60006113fa878288016113bd565b945050602061140b878288016113bd565b935050604061141c878288016113bd565b925050606061142d878288016113bd565b91505092959194509250565b7f4176617461722063616e206e6f74206265207a65726f20616464726573730000600082015250565b600061146f601e836112f1565b915061147a82611439565b602082019050919050565b6000602082019050818103600083015261149e81611462565b9050919050565b7f5461726765742063616e206e6f74206265207a65726f20616464726573730000600082015250565b60006114db601e836112f1565b91506114e6826114a5565b602082019050919050565b6000602082019050818103600083015261150a816114ce565b9050919050565b600060408201905061152660008301856110b5565b61153360208301846110b5565b9392505050565b6000819050919050565b600060ff82169050919050565b6000819050919050565b600061157661157161156c8461153a565b611551565b611544565b9050919050565b6115868161155b565b82525050565b60006020820190506115a1600083018461157d565b92915050565b60007fffffffff0000000000000000000000000000000000000000000000000000000082169050919050565b6115dc816115a7565b82525050565b60006020820190506115f760008301846115d3565b92915050565b60008115159050919050565b611612816115fd565b811461161d57600080fd5b50565b60008151905061162f81611609565b92915050565b60006020828403121561164b5761164a610f89565b5b600061165984828501611620565b91505092915050565b7f63616c6c6572206973206e6f7420746865207269676874206176617461720000600082015250565b6000611698601e836112f1565b91506116a382611662565b602082019050919050565b600060208201905081810360008301526116c78161168b565b9050919050565b60006040820190506116e3600083018561126e565b6116f0602083018461108b565b9392505050565b7f4e487b7100000000000000000000000000000000000000000000000000000000600052601160045260246000fd5b60006117318261101e565b91507fffffffffffffffffffffffffffffffffffffffffffffffffffffffffffffffff821415611764576117636116f7565b5b600182019050919050565b7f4f776e61626c653a206e6577206f776e657220697320746865207a65726f206160008201527f6464726573730000000000000000000000000000000000000000000000000000602082015250565b60006117cb6026836112f1565b91506117d68261176f565b604082019050919050565b600060208201905081810360008301526117fa816117be565b9050919050565b7f4f776e61626c653a2063616c6c6572206973206e6f7420746865206f776e6572600082015250565b60006118376020836112f1565b915061184282611801565b602082019050919050565b600060208201905081810360008301526118668161182a565b9050919050565b7f496e697469616c697a61626c653a20636f6e7472616374206973206e6f74206960008201527f6e697469616c697a696e67000000000000000000000000000000000000000000602082015250565b60006118c9602b836112f1565b91506118d48261186d565b604082019050919050565b600060208201905081810360008301526118f8816118bc565b905091905056fea2646970667358221220c98d087ece64d3450d576645b2e90932bdebd4609c1e41e57fd846e172bb0a3e64736f6c63430008090033",
  "devdoc": {
    "kind": "dev",
    "methods": {
      "owner()": {
        "details": "Returns the address of the current owner."
      },
      "renounceOwnership()": {
        "details": "Leaves the contract without owner. It will not be possible to call `onlyOwner` functions anymore. Can only be called by the current owner. NOTE: Renouncing ownership will leave the contract without an owner, thereby removing any functionality that is only available to the owner."
      },
      "setAvatar(address)": {
        "details": "Sets the avatar to a new avatar (`newAvatar`)."
      },
      "setGuard(address)": {
        "details": "Set a guard that checks transactions before execution.",
        "params": {
          "_guard": "The address of the guard to be used or the 0 address to disable the guard."
        }
      },
      "setTarget(address)": {
        "details": "Sets the target to a new target (`newTarget`)."
      },
      "transferOwnership(address)": {
        "details": "Transfers ownership of the contract to a new account (`newOwner`). Can only be called by the current owner."
      }
    },
    "version": 1
  },
  "userdoc": {
    "errors": {
      "NotIERC165Compliant(address)": [
        {
          "notice": "`guard_` does not implement IERC165."
        }
      ]
    },
    "kind": "user",
    "methods": {
      "setAvatar(address)": {
        "notice": "Can only be called by the current owner."
      },
      "setTarget(address)": {
        "notice": "Can only be called by the current owner."
      }
    },
    "version": 1
  },
  "storageLayout": {
    "storage": [
      {
        "astId": 926,
        "contract": "contracts/ScheduledPayment.sol:ScheduledPayment",
        "label": "_initialized",
        "offset": 0,
        "slot": "0",
        "type": "t_uint8"
      },
      {
        "astId": 929,
        "contract": "contracts/ScheduledPayment.sol:ScheduledPayment",
        "label": "_initializing",
        "offset": 1,
        "slot": "0",
        "type": "t_bool"
      },
      {
        "astId": 1354,
        "contract": "contracts/ScheduledPayment.sol:ScheduledPayment",
        "label": "__gap",
        "offset": 0,
        "slot": "1",
        "type": "t_array(t_uint256)50_storage"
      },
      {
        "astId": 798,
        "contract": "contracts/ScheduledPayment.sol:ScheduledPayment",
        "label": "_owner",
        "offset": 0,
        "slot": "51",
        "type": "t_address"
      },
      {
        "astId": 918,
        "contract": "contracts/ScheduledPayment.sol:ScheduledPayment",
        "label": "__gap",
        "offset": 0,
        "slot": "52",
        "type": "t_array(t_uint256)49_storage"
      },
      {
        "astId": 605,
        "contract": "contracts/ScheduledPayment.sol:ScheduledPayment",
        "label": "guard",
        "offset": 0,
        "slot": "101",
        "type": "t_address"
      },
      {
        "astId": 171,
        "contract": "contracts/ScheduledPayment.sol:ScheduledPayment",
        "label": "avatar",
        "offset": 0,
        "slot": "102",
        "type": "t_address"
      },
      {
        "astId": 174,
        "contract": "contracts/ScheduledPayment.sol:ScheduledPayment",
        "label": "target",
        "offset": 0,
        "slot": "103",
        "type": "t_address"
      },
      {
        "astId": 1396,
        "contract": "contracts/ScheduledPayment.sol:ScheduledPayment",
        "label": "config",
        "offset": 0,
        "slot": "104",
        "type": "t_address"
      },
      {
        "astId": 1398,
        "contract": "contracts/ScheduledPayment.sol:ScheduledPayment",
        "label": "nonce",
        "offset": 0,
        "slot": "105",
        "type": "t_uint256"
      },
      {
        "astId": 1402,
        "contract": "contracts/ScheduledPayment.sol:ScheduledPayment",
        "label": "spHash",
        "offset": 0,
        "slot": "106",
        "type": "t_mapping(t_uint256,t_bytes32)"
      }
    ],
    "types": {
      "t_address": {
        "encoding": "inplace",
        "label": "address",
        "numberOfBytes": "20"
      },
      "t_array(t_uint256)49_storage": {
        "base": "t_uint256",
        "encoding": "inplace",
        "label": "uint256[49]",
        "numberOfBytes": "1568"
      },
      "t_array(t_uint256)50_storage": {
        "base": "t_uint256",
        "encoding": "inplace",
        "label": "uint256[50]",
        "numberOfBytes": "1600"
      },
      "t_bool": {
        "encoding": "inplace",
        "label": "bool",
        "numberOfBytes": "1"
      },
      "t_bytes32": {
        "encoding": "inplace",
        "label": "bytes32",
        "numberOfBytes": "32"
      },
      "t_mapping(t_uint256,t_bytes32)": {
        "encoding": "mapping",
        "key": "t_uint256",
        "label": "mapping(uint256 => bytes32)",
        "numberOfBytes": "32",
        "value": "t_bytes32"
      },
      "t_uint256": {
        "encoding": "inplace",
        "label": "uint256",
        "numberOfBytes": "32"
      },
      "t_uint8": {
        "encoding": "inplace",
        "label": "uint8",
        "numberOfBytes": "1"
      }
    }
  }
}